:020000040001F9
:10600000C0370020C1610100DB610100DD610100DA
:106010000000000000000000000000000000000080
:10602000000000000000000000000000DF6101002F
:106030000000000000000000E1610100E3610100D8
:10604000E5610100E5610100E5610100E561010034
:10605000E561010000000000F1C80100F16F0100DE
:10606000E5610100E5610100E5610100E561010014
:10607000E5610100E5610100E5610100E561010004
:10608000E5610100A39E0100E5610100E5610100F9
:10609000C59E0100E56101003BA30100E56101002F
:1060A000E5610100E5610100000000000000000062
:1060B00000000000000000000000000000000000E0
:1060C00000F002F800F030F80CA030C808382418AE
:1060D0002D18A246671EAB4654465D46AC4201D120
:1060E00000F022F87E460F3E0FCCB6460126334222
:1060F00000D0FB1AA246AB4633431847FC700000A1
:106100001C7100000023002400250026103A01D352
:1061100078C1FBD8520700D330C100D50B6070475F
:106120001FB51FBD10B510BD06F0B9FF1146FFF732
:10613000F7FF00F0ECFE06F0D1FF03B4FFF7F2FF2B
:1061400003BC06F0D5FF0000401E00BF00BF00BF2B
:1061500000BF00BF00BF00BF00BF00BF00BF00BF47
:1061600000BFF1D170470000401E00BF00BF00BF5C
:1061700000BF00BF00BF00BF00BF00BF00BF00BF27
:1061800000BFF1D17047000070B505460C461646B9
:1061900002E00FCC0FC5103E102EFAD2082E02D30B
:1061A00003CC03C5083E042E07D301CC01C5361F1E
:1061B00003E021782970641C6D1C761EF9D270BD35
:1061C00003210C4802680A4302600B4802680A4334
:1061D00002600A4880470A480047FEE7FEE7FEE7FC
:1061E000FEE7FEE7FEE7000006480749074A084BBE
:1061F000704700002405004054050040076301007B
:10620000C1600100C0270020C0370020C02F00203F
:10621000C02F00204F485049086070474F48008CFD
:10622000C0B201281FD14D48808C0007000F002804
:1062300019D14A48806AF0210840A02806D1474871
:10624000C06A0840002801D1012070474348806A95
:10625000F0210840D02806D14048C06A08400028F4
:1062600001D10120F1E70020EFE73C48008CC0B2EB
:10627000012812D13948808C0007000F00280CD16A
:106280003648806AF0210840402806D13348C06A69
:106290000840002801D1012070470020FCE72F486A
:1062A000008CC0B201282CD12C48808C0007000F34
:1062B000002826D12948806AF0210840002806D10C
:1062C0002648C06A0840002801D1012070472348B1
:1062D000806AF0210840102806D12048C06A084092
:1062E000002801D10120F1E71C48806AF021084014
:1062F000302806D11948C06A0840002801D1012081
:10630000E4E70020E2E710B5FFF7C9FF002805D059
:10631000134814494860C81313498861FFF7A5FF63
:10632000002802D0012011498860FFF777FF00287C
:106330000ED00F480068012807D00E480C490860AD
:1063400000BF0B4800680128FBD1C0200849486104
:1063500010BD00000024F40000200020C00F00F059
:10636000DFFF07C000050040006C00400006004051
:1063700000EC06407593000000BFBFF34F8FC64886
:10638000C649C860BFF34F8F00BF00BFFEE703469A
:106390000C4622461946C248FFF7EEFF034600BFEF
:1063A000C0A2AE211846FFF7E7FF10B5044600F083
:1063B00055FE10BDFFB587B005460E461F46E88F57
:1063C000BB49884222D0084686421FD00697069FC6
:1063D00005970020019002900390049001216846E7
:1063E00081710021018105A80390099804906846F5
:1063F0008680E88F01A9A6DF0446002C05D16846F7
:10640000818A0698814200D00C2400E008242046AE
:106410000BB0F0BD70B50546A6A004F009F8A94878
:10642000007800F0A0FF064604F002F8A6A003F0F2
:10643000FFFFAA48007800F096FF064603F0F8FF39
:10644000A7A003F0F5FFAC48007800F08CFF0646EB
:1064500003F0EEFFA9A003F0EBFFAF48007800F0D7
:1064600082FF064603F0E4FFACA003F0E1FFB24870
:10647000007800F078FF064603F0DAFFAFA003F0E3
:10648000D7FFB348007800F06EFF064603F0D0FF58
:10649000B0A003F0CDFFB548007800F064FF0646D9
:1064A00003F0C6FFB248C1880123864AFFF782FF86
:1064B0000446002C03D0AFA003F0BAFF02E0B5A061
:1064C00003F0B6FFAA48C1890123844AFFF772FF8F
:1064D0000446002C03D0B7A003F0AAFF02E0BDA041
:1064E00003F0A6FFA248C18A0123834AFFF762FF97
:1064F0000446002C03D0C0A003F09AFF02E0C6A01F
:1065000003F096FF9A48C18B0123834AFFF752FF9D
:106510000446002C03D0C9A003F08AFF02E0D1A0FA
:1065200003F086FF9248C18C0123834AFFF742FFA4
:106530000446002C03D0D6A003F07AFF02E0DFA0CF
:1065400003F076FF8A48C18D0123814AFFF732FFAD
:106550000446002C03D0E4A003F06AFF02E0EAA0A6
:1065600003F066FF8248C18E0123804AFFF722FFB5
:106570000446002C03D0EDA003F05AFF02E0F4A083
:1065800003F056FF70BD38B500BF0020FA4B06225D
:106590000821009003F09AFC054600BF2B46002B13
:1065A00006D000BF3FA2FF2197311846FFF7E4FE57
:1065B00000BF00BFF14A0121F14803F004FD044689
:1065C00000BF2346002B06D000BF36A2FF219D311D
:1065D0001846FFF7D1FE00BFEA4A0121EA4803F05E
:1065E000F2FC044600BF2346002B06D000BF2DA2BC
:1065F000FF21A7311846FFF7BFFE00BF38BD3EB5EB
:1066000000BF6846007801090901491C00916846ED
:106610000078F02188431030009000BF0C22DBA1ED
:1066200068467CDF044600BF2346002B06D000BF2F
:106630001CA2FF21BB311846FFF79EFE00BFD748C2
:1066400078DF044600BF2346002B06D000BF15A20A
:10665000FF21BE311846FFF78FFE00BF00200190DA
:106660000290FF219131684681804900C18000215C
:106670000181FF219131418101A87ADF044600BFE9
:106680002346002B06D000BF06A2FF21C8311846C2
:10669000FFF772FE00BF3EBD0400FA0500ED00E00A
:1066A000EFBEADDE2E2E5C6D61696E2E63000000C4
:1066B000FFFF00000D0A75765F6C616D705F636DA2
:1066C000642D3E008A2000200D0A75765F6C616D96
:1066D000705F7374617475732D3E00008D2000200F
:1066E0000D0A75765F6C616D705F646F6F725F73BA
:1066F00074617475732D3E008E2000200D0A666152
:106700006E5F6E656761746976655F696F6E5F6302
:106710006D642D3E000000008B2000200D0A666194
:106720006E5F6E656761746976655F696F6E5F73D2
:1067300074617475732D3E008F2000200D0A656C06
:1067400065635F6C6F636B5F636D642D3E0000007B
:106750008C2000200D0A656C65635F6C6F636B5F56
:106760007374617475732D3E00000000902000204A
:10677000682100200D0A6E6F746966792066616970
:106780006C65642175765F6C616D705F636D64210B
:10679000000000000D0A6E6F7469667920737563DE
:1067A0006365737365642175765F6C616D705F639B
:1067B0006D6421000D0A6E6F7469667920666169E7
:1067C0006C65642175765F6C616D705F7374617464
:1067D000757321000D0A6E6F746966792073756395
:1067E0006365737365642175765F6C616D705F734B
:1067F00074617475732100000D0A6E6F7469667997
:10680000206661696C65642175765F6C616D705F8F
:10681000646F6F72210000000D0A6E6F74696679F3
:10682000207375636365737365642175765F6C614E
:106830006D705F646F6F7221000000000D0A6E6F53
:1068400074696679206661696C65642166616E5F52
:106850006E656761746976655F696F6E5F636D64AD
:10686000210000000D0A6E6F7469667920737563EC
:106870006365737365642166616E5F6E65676174DD
:106880006976655F696F6E5F636D6421000000006B
:106890000D0A6E6F74696679206661696C656421A2
:1068A00066616E5F6E656761746976655F696F6E5C
:1068B0005F73746174757321000000000D0A6E6FC0
:1068C00074696679207375636365737365642166A3
:1068D000616E5F6E656761746976655F696F6E5F33
:1068E00073746174757321000D0A6E6F7469667933
:1068F000206661696C656421656C65635F6C6F63BC
:106900006B5F636D640000000D0A6E6F74696679D9
:106910002073756363657373656421656C65635F7C
:106920006C6F636B5F636D64210000000D0A6E6F16
:1069300074696679206661696C656421656C65635C
:106940005F6C6F636B5F737461747573000000003C
:106950000D0A6E6F7469667920737563636573736E
:10696000656421656C65635F6C6F636B5F737461F5
:106970007475732100000000A8210020AB630100A2
:1069800008200020156401000C200020534D4152C6
:10699000545F4C4F434B4552000000004103000040
:1069A00010B592B006210391FE4A07CA6B4607C391
:1069B000382104A806F0C1FA0221684601740121B9
:1069C0008174818203A906910321018569460B9197
:1069D000002104A802F0EEFD044600BF2346002B70
:1069E00006D000BFF04AFF21E9311846FFF7C4FC8A
:1069F00000BF1421ED4806F0A0FA0020EB49087012
:106A00004860087228200882B420488212B010BD65
:106A100010B59AB000201690179018901990119008
:106A2000012110A8017200201390642110A80174A4
:106A300016A9DF4802F026F9044600BF2346002BC2
:106A400005D000BFD84ADB491846FFF795FC00BFC8
:106A5000142111A806F071FA00BF10A8407C0109AA
:106A60000901491C10A84174407CF0218843103072
:106A700010A9487400BF00BF11A8807B0009000165
:106A8000401C11A9887311A8807BF0218843103025
:106A900011A9887300BF00BF11A8C07B00090001C5
:106AA000C87311A8C07BF021884311A9C87300BF27
:106AB00000BF10A8007D01090901491C10A801753B
:106AC000007DF0218843103010A9087500BF002018
:106AD0001190012110A8017200201390642110A8C8
:106AE000017411A9B44801F083FB044600BF23469A
:106AF000002B06D000BFAC4AAE4925311846FFF73F
:106B00003BFC00BF402101A806F017FAABA101A889
:106B100002F0B6FD00BF10A8007801090901491C68
:106B200010A801700078F0218843103010A9087077
:106B300000BF00BF10A8407800090001487010A8ED
:106B40004078F021884310A9487000BF01A801F0E7
:106B500027F9044600BF2346002B06D000BF924A07
:106B6000944930311846FFF707FC00BF1AB010BD3A
:106B700010B588B01C2101A806F0DFF900200190B3
:106B80000520C00302900F200004039003216846F3
:106B900001740021418201210175002006908B487B
:106BA000079001A802F01DF9044600BF2346002B00
:106BB00006D000BF7C4A7F4949311846FFF7DCFB0D
:106BC00000BF08B010BD70B505460E46134600BFA5
:106BD0001C46002C06D000BF734A7649553120462A
:106BE000FFF7CAFB00BF002070BD1FB505F0C6F956
:106BF000044600BF2346002B06D000BF6A4A6D49F9
:106C000064311846FFF7B8FB00BF0020039003A8CB
:106C100003F0D1FE044600BF2346002B06D000BF80
:106C2000614A9F2189001846FFF7A6FB00BF062195
:106C300001A8023006F07FF91E216846C180007A63
:106C400040084000401C694608726846007A0221EC
:106C50008843694608726846007A1C2188430C30D4
:106C6000694608726846007A20218843694608729E
:106C70000721684641721021817255480090012118
:106C8000684601716946534803F004FF044600BF9B
:106C90002346002B06D000BF434A464979311846A7
:106CA000FFF76AFB00BF1FBD38B5684605F069FCF9
:106CB000044600BF2346002B06D000BF3A4A2F21CE
:106CC00009011846FFF758FB00BF0098002803D0C1
:106CD00001204149087038BD34DF044600BF234617
:106CE000002B06D000BF304A3249E7311846FFF783
:106CF00043FB00BF00BFEEE710B50446022C02D0F4
:106D0000032C0BD100E000BF33480078002804D0EA
:106D1000002031490870FFF7C7FF00E000BF00BF47
:106D200010BD10B50446204605F085F82046FFF753
:106D3000E3FF10BD10B51D4873DF044600BF2346B6
:106D4000002B06D000BF184A172149011846FFF74B
:106D500013FB00BF10BD10B50022012109041F481C
:106D6000006803F077F9044600BF2346002B06D0E5
:106D700000BF0D4A2D2109011846FFF7FDFA00BF9B
:106D80000022052109041648006803F063F904464F
:106D900000BF2346002B27D000BF034A0549C3315B
:106DA00018461FE070D10100A46601003C210020BC
:106DB0006821002012020000502100206368616EEB
:106DC00067686F6E675F6A6A6A6700009D630100AB
:106DD000C76B010011200020102000200820002097
:106DE0000C200020FFF7C8FA00BF10BD10B5044604
:106DF0002088102804D0112808D0192813D10FE0BA
:106E0000FFF7A9FF5AA003F013FB0DE0FFF792FF75
:106E10006148006803F04FF960A003F009FB03E04C
:106E2000FFF788FF00E000BF00BF10BD10B50446AB
:106E3000204604F041FA21465F4801F0DCF8214683
:106E40005E4801F05FFA204602F09FF82046FFF707
:106E5000CDFF10BD38B500BF0023502258490B208C
:106E600003F023FA054600BF2B46002B06D000BFD7
:106E7000544A5321C9001846FFF77EFA00BF00BFED
:106E8000002000900090684660DF044600BF234663
:106E9000002B05D000BF4B4A4B491846FFF76CFA50
:106EA00000BF4A4803F037FA044600BF2346002BD0
:106EB00006D000BF434A4449091D1846FFF75CFA53
:106EC00000BF434803F030FA044600BF2346002BBE
:106ED00006D000BF3B4A3C4908311846FFF74CFA40
:106EE00000BF38BD10B500BF3A49012005F080FD54
:106EF000044600BF2346002B06D000BF314A32496A
:106F000010311846FFF738FA00BF00BF10BD08B5B2
:106F100000200346024618210090152003F098FA3D
:106F20002DA003F085FAFFF72EFBFFF7DBFF002013
:106F300000F0DCFAFFF78EFFFFF757FEFFF75FFB6D
:106F4000FFF72EFDFFF764FDFFF712FEFFF7F2FEDD
:106F500000BF40DF044600BF2346002B06D000BF21
:106F6000184A1949F7311846FFF706FAF1E7000009
:106F70000D0A73746172742F726573746172742078
:106F800073656E64696E6720646576696365206900
:106F90006E666F21000000000C2000200D0A737443
:106FA0006F702073656E64696E67206465766963CF
:106FB0006520696E666F2100502100206821002045
:106FC000F8240020A46601009F0200002D6E01003D
:106FD000236D01004825002068656C6C6F20736D7F
:106FE0006172745F6C6F636B6572210D0A00000043
:106FF000F8B56048006800282FD000205D4908607F
:107000005D488068C5B201205C4948604B21090198
:1070100069430846FF2105F09CFF41004018FF30FE
:107020000F3086B2304600F05BF8074639465448C8
:1070300001F0FFF80446002C0ED0082C0CD051486B
:10704000844209D05048844206D000BF4FA2532149
:107050002046FFF791F900BF00BFF8BD70B50120D1
:107060004E49486018204449486000204149086062
:1070700001204149086007202ADF044600BF254659
:10708000002D06D000BF41A269212846FFF774F900
:1070900000BF00BF032107202BDF044600BF2546A9
:1070A000002D06D000BF39A26C212846FFF764F9F5
:1070B00000BF00BF072026DF044600BF2546002D85
:1070C00006D000BF31A26F212846FFF755F900BF57
:1070D00000BF00202749086001202849086070BDD2
:1070E00070B504462E48844201DB642540E02C48FC
:1070F000643884420BDD2A49091B3A225143084671
:10710000642105F026FF6421081AC5B230E0254845
:1071100084420CDD22496439091B18225143084678
:10712000A02105F016FF2A21081AC5B220E01E484A
:1071300084420CDD1B49091B0C2251430846FF21E8
:107140002D3105F006FF1221081AC5B210E01748CC
:1071500084420CDD1449091B062251430846FF21D5
:10716000553105F0F6FE0621081AC5B200E00025EB
:10717000284670BD0071004000750040007000405E
:107180005021002004300000013400002E2E5C62EB
:107190006174746572792E63000000000073004012
:1071A000B80B0000B40A0000880900003408000091
:1071B000012383401946F84B5B68C340DA07D20FBE
:1071C000002A02D1F44B996001E0F34BD96070477B
:1071D000002906D100BF01228240EF4BDA6000BFD8
:1071E00006E000BF01228240EB4B9A6000BF00BF67
:1071F000704770B50446204600F098FB002801D087
:10720000012000E00020054601206840012148409F
:1072100070BD10B5044601212046FFF7D9FF10BD0F
:1072200010B5044600212046FFF7D2FF10BD10B56F
:107230000720FFF7F5FF0820FFF7F2FF0C20FFF70C
:10724000EFFF10BD10B50720FFF7E3FF0820FFF7A1
:10725000E0FF0C20FFF7DDFF10BD10B5044620460F
:10726000FFF7A6FF10BD10B5072000F056FB082061
:1072700000F053FB0C2000F050FBFFF7D8FF10BDCF
:1072800010B5044601212046FFF7A2FF10BD10B53E
:10729000044600212046FFF79BFF10BD10B50620D5
:1072A000FFF7F5FF0720FFF7F2FF0B20FFF7EFFFD7
:1072B00010BD10B50620FFF7E3FF0720FFF7E0FF42
:1072C0000B20FFF7DDFF10BD10B504462046FFF789
:1072D0006FFF10BD10B5062000F01FFB072000F067
:1072E0001CFB0B2000F019FBFFF7D8FF10BD70B599
:1072F0000446204600F01AFB002801D0012000E0DF
:10730000002005460120684070BDF8B500BFA348C5
:107310000068401C7D21C900484307469F4800681B
:10732000401C48434008002119231B04C51849414B
:107330003A460023284605F0D1FC002302460321EB
:107340000090974805F0C9F9044600BF2546002D76
:1073500006D000BF93A2C6212846FFF70DF800BF54
:1073600000BF00BFF8BDF0B587B0064606AD069673
:10737000142293A101A8FEF707FF964C302020703D
:10738000641C78202070641C6D1C01270FE0681EAF
:1073900005460078001101A9085C2070641C28785B
:1073A0000007000F085C2070641C781EC7B2002F15
:1073B000EDDC0D20874908710A2048710020887192
:1073C000084607B0F0BD10B5022083490870834914
:1073D0000870834908700320FFF789FF002803D055
:1073E00001208049087002E002207E4908700220D6
:1073F000FFF77DFF002803D001207B49087002E0E1
:10740000022079490870022078490870784908708C
:1074100078A003F00DF873480078FFF7A4FF044646
:1074200003F006F87BA003F003F86F480078FFF73D
:107430009AFF044602F0FCFF10BD10B504460C2074
:10744000FFF70BFF10BDF8B57AA002F0F1FF8048FE
:107450000078FFF788FF044602F0EAFF62480078F0
:1074600001282CD17A480078002828DD7848007857
:10747000401E774908700B20FFF702FF474800685D
:10748000401C7D21C9004843074644480068401C11
:1074900048434008002119239B04C51849413A4636
:1074A0000023284605F01AFC0446002221466948BC
:1074B000006802F0CFFD68A002F0BAFF0DE00320E3
:1074C0006349087048480078022803D169A002F097
:1074D000AFFF02E06EA002F0ABFFF8BD10B50446AE
:1074E0000B20FFF7D4FEFFF7AEFF10BDFEB5074639
:1074F0002A480760FFF7B7FEFFF7ECFEFFF705FF2E
:10750000FFF761FF05F02BF9044600BF2546002D6B
:1075100006D000BF23A2F5212846FEF72DFF00BFAD
:1075200000BF624A00214B4802F04DFD044600BFF7
:10753000002C03D0072C01D02046FEBD00BF5C4AC2
:1075400001215C4802F03FFD044600BF002C03D03F
:10755000072C01D02046F0E700BF10480068401C0F
:107560007D21C900484300900C480068401C4843F6
:10757000400800217D235B04C518494100232846AB
:10758000009A05F0ABFB00220146019049480068D3
:1075900002F060FD2046D0E7000500501C200020CE
:1075A000202000202E2E5C6273705F62746E5F7309
:1075B0006D6172745F6C6F636B65722E63000000A7
:1075C0003031323334353637383941424344454619
:1075D00000000000392000208A2000208B2000209D
:1075E0008C2000208E200020902000208D20002064
:1075F0008F2000200D0A6F6E73746172742075768F
:107600005F6C616D705F646F6F725F7374617475CE
:10761000732D3E000D0A6F6E737461727420656C79
:1076200065635F6C6F636B5F7374617475732D3E1C
:10763000000000000D0A637572206F70656E207483
:10764000696D655F72656D61696E2D3E00000000B9
:1076500038200020142000200D0A6F70656E206510
:107660006C65635F6C6F636B207472792061676116
:10767000696E21000D0A6F70656E20656C65635F31
:107680006C6F636B2073756363657373656421004E
:107690000D0A6F70656E20656C65635F6C6F636B60
:1076A000206661696C65642100000000DD740100E2
:1076B0003B7401001820002010B50620FFF7E7FDFD
:1076C0000820FFF7ADFD02209C49087010BD10B5E1
:1076D0000620FFF7D5FD0820FFF79BFD0120974905
:1076E000087010BD70B504460D46012D2BD1022C3B
:1076F00004D0032C09D0042C18D113E001209049A8
:10770000087090A002F094FE1CE0012093490870DC
:1077100093480078012801D1FFF7D9FF91A002F02A
:1077200087FE0FE096A002F083FE0BE000BF994AAF
:10773000FF2114312046FEF71FFE00BF96A002F085
:1077400077FE00BF2DE0002D2BD1022C04D0032C9E
:1077500009D0042C18D113E002207949087097A0B1
:1077600002F066FE1CE002207C4908707348007835
:10777000012801D1FFF7A0FF96A002F059FE0FE00B
:107780009BA002F055FE0BE000BF824AFF212B3187
:107790002046FEF7F1FD00BF9BA002F049FE00BFAE
:1077A00000BF70BD704770B505460C469FA002F043
:1077B0003FFEA4A002F03CFE207EFFF7D4FD06466B
:1077C00002F036FEA1A002F033FEA07EFFF7CBFD53
:1077D000064602F02DFE9FA002F02AFE60480078C7
:1077E000FFF7C1FD064602F023FE5D480078012840
:1077F00005D1FFF76CFF9DA002F01AFE0CE058487F
:107800000078022805D1FFF757FF9CA002F010FE78
:1078100002E09FA002F00CFE70BD10B50720FFF73C
:1078200036FD0720FFF7FCFC02209E49087010BDC2
:1078300010B50720FFF724FD0720FFF7EAFC012021
:107840009849087010BD70B505460C4696A002F028
:10785000EFFD7CA002F0ECFD207EFFF784FD0646E4
:1078600002F0E6FD79A002F0E3FDA07EFFF77BFDCC
:10787000064602F0DDFD91A002F0DAFD94480078A2
:10788000FFF771FD064602F0D3FD9148007801280C
:1078900005D1FFF7CDFF8FA002F0CAFD0CE08C48A8
:1078A0000078022805D1FFF7B8FF8FA002F0C0FDD5
:1078B00002E093A002F0BCFD70BD70B505460C4619
:1078C00095A002F0B5FD5FA002F0B2FD207EFFF7AB
:1078D0004AFD064602F0ACFD5CA002F0A9FDA07EC8
:1078E000FFF741FD064602F0A3FD91A002F0A0FDC6
:1078F00096480078FFF737FD064602F099FD934859
:107900000078012805D1FFF79EFD91A002F090FDBF
:1079100002E094A002F08CFD70BD03210522120745
:1079200007231B02D2188300D150704701469348A9
:107930000069C840C007C00F704700008D200020BC
:10794000902000200D0A656C6563206C6F636B20CE
:107950006973206C6F636B65642100008E200020CA
:107960008A2000200D0A75765F6C616D7020646F4F
:107970006F7220697320636C6F736564210000006F
:107980000D0A636F696E20626F7820676574206CE2
:107990006F772100A47501000D0A627574746F6E13
:1079A0005F616374696F6E5F707573682065727272
:1079B0002070696E206E6F21000000000D0A656C5A
:1079C0006563206C6F636B206973206F70656E65F3
:1079D000642100000D0A75765F6C616D7020646F24
:1079E0006F72206973206F70656E656421000000FE
:1079F0000D0A636F696E20626F7820676574206876
:107A000069676821000000000D0A627574746F6E6A
:107A10005F616374696F6E5F72656C656173652029
:107A20006572722070696E206E6F21000D0A777288
:107A30006974652075765F6C616D7020636D642D6F
:107A40003E0000006C656E3A00000000636D643A11
:107A5000000000000D0A63757272656E7420757601
:107A60005F6C616D7020636D642D3E000D0A6F7058
:107A7000656E2075765F6C616D7021000D0A636C18
:107A80006F73652075765F6C616D7021000000007A
:107A90000D0A75765F6C616D7020636D6420657290
:107AA000722100008F2000200D0A77726974652012
:107AB00066616E20636D642D3E0000000D0A6375E3
:107AC0007272656E742066616E20636D642D3E0077
:107AD0008B2000200D0A6F70656E2066616E5F6EF0
:107AE00067745F696F6E21000D0A636C6F736520A8
:107AF00066616E5F6E67745F696F6E2100000000E3
:107B00000D0A66616E5F6E67745F696F6E20636DEC
:107B100064206572722100000D0A77726974652015
:107B2000656C65635F6C6F636B20636D642D3E00F5
:107B30000D0A63757272656E7420656C65635F63B0
:107B40006D6420636D642D3E000000008C200020D9
:107B50000D0A6F70656E20656C65635F6C6F636B9B
:107B6000210000000D0A656C65635F6C6F636B201C
:107B7000636D6420657272210000000000050050F2
:107B800070B504460D4600BF002D01D0012000E075
:107B900000200646002E05D100BFE6A23321FEF7E5
:107BA000EBFB00BF00BF00BF002C01D0012000E0B4
:107BB00000200646002E05D100BFDEA23421FEF7CC
:107BC000DBFB00BF00BF2878207029882879FF23BD
:107BD0001B02194000200206080A10436070287931
:107BE0001B022968194000200204080C1043A070F1
:107BF00029791B022868184000210902000E084359
:107C0000E07028792071287A6071190CA868084002
:107C1000000AA0710902A8680840000CE07170BD5C
:107C2000F8B505460E46002400BF002E01D0012005
:107C300000E000200746002F05D100BFBDA24B2168
:107C4000FEF79AFB00BF00BF00BF002D01D001204E
:107C500000E000200746002F05D100BFB5A24C214F
:107C6000FEF78AFB00BF00BF32782046611CCCB211
:107C70002A542919708800F054F90019C4B229193E
:107C8000B08800F04EF90019C4B22919F08800F04C
:107C900048F90019C4B200BF072C01D1012000E04F
:107CA00000200746002F05D100BFA2A25421FEF7F5
:107CB00063FB00BF00BFF8BDF0B58FB007460D46AF
:107CC00014461E4600BF002D01D0012000E0002018
:107CD00000900098002805D100BF96A26D21FEF704
:107CE0004BFB00BF00BF00BF002C01DD012000E006
:107CF000002000900098002805D100BF8DA26E21C1
:107D0000FEF73AFB00BF00BF1C2107A805F015F9DC
:107D10006946087F02218843801C69460877002055
:107D200008900A900B900C900D9000BF012108A8BC
:107D300081766846078700BF002001903178684649
:107D4000017171784171807906218843811C6846F0
:107D50008171807908218843014668468171807964
:107D600010218843014668468171807941084900A5
:107D700068468171142102A805F0DFF80EA8029070
:107D800001A80390684604820021418284820695FE
:107D900002AA07A974480088149BA2DF0FB0F0BDA7
:107DA0007FB5044600BF0121684681736F49818118
:107DB00000BF6D4A03A90120A0DF0546002D02D0B7
:107DC000284604B070BD208800280DDD684800906A
:107DD000228823463C3367486168FFF76DFF0546FC
:107DE000002D01D02846ECE7208900280EDD6248EE
:107DF0000090228923463C335E48401FE168FFF72C
:107E00005BFF0546002D01D02846DAE7208A0028CE
:107E10000EDD5A480090228A23463C335548001F05
:107E20006169FFF749FF0546002D01D02846C8E7E4
:107E3000208B00280EDD52480090228B23463C33D5
:107E40004C48801EE169FFF737FF0546002D01D041
:107E50002846B6E7208C00280EDD4A480090228C88
:107E600023463C334348C01E616AFFF725FF0546A1
:107E7000002D01D02846A4E7208D00280EDD4248C1
:107E80000090228D23463C333A48401EE16AFFF7BA
:107E900013FF0546002D01D0284692E7206B0028ED
:107EA00013D001A8216BFFF76BFE384823463C3303
:107EB000082201A900902F48801FFFF7FDFE05460C
:107EC000002D01D028467CE700BF606B00280FD052
:107ED0002F480090606B027923463C3301682548A7
:107EE000401CFFF7E9FE0546002D01D0284668E753
:107EF000A06B002813D001A8A16BFFF791FE2548C5
:107F000023463C33072201A900901A482730FFF787
:107F1000D3FE0546002D01D0284652E700BF0020C1
:107F20004FE702460A70FF2000021040001248701E
:107F3000022070472E2E5C2E2E5C2E2E5C2E2E5C88
:107F40002E2E5C536F757263655C626C655C626C4F
:107F5000655F73657276696365735C626C655F64A7
:107F600069732E6300000000402000200A18000002
:107F700042200020292A00004A2000205220002010
:107F80005A200020622000206A2000207220002059
:107F90007A200020822000208A88428270470022B6
:107FA000D24342827047F8B504460E46207D002831
:107FB00020D0B51D2988608981421AD1288B0228DA
:107FC00017D12068002814D000BF00BFA97EEA7E28
:107FD000120211430846C107C90F002902D0002030
:107FE000009001E0012000906946204622689047F9
:107FF00000BF00BFF8BD70B505460C4620881028AC
:1080000004D0112807D050280FD109E02146284676
:10801000FFF7C2FF0AE021462846FFF7C0FF05E050
:1080200021462846FFF7BFFF00E000BF00BF70BD3C
:10803000F0B591B004460D46207D002819D00020EF
:10804000099000BF08A8007901090901491C08A886
:1080500001710079F0218843103008A9087100BF30
:10806000697B08A84171807906218843801C08A992
:1080700088711C210AA804F060FF08A8007A022178
:108080008843811C08A80172007A10218843217D51
:10809000002901D0012100E0002109011022114036
:1080A000084308A9087200200B900D900E90207DC7
:1080B000002801D009A800E000200F9000201090B7
:1080C00000BF0121684681737749818100BF00208C
:1080D0000290A97B68460172E97B4172807A062191
:1080E0008843811C68468172807A08218843014652
:1080F00068468172807A1021884301466846817201
:10810000807A4108490068468172297B01911421D7
:1081100004A804F012FF03A8049002A8059001210E
:1081200068460183002141830121818301A80890D1
:10813000A088A31D04AA0AA9A2DF0646002E02D029
:10814000304611B0F0BDA86800284DD000BF012115
:10815000684681735549818100BF00200290287CC8
:108160006946087200BF6846407A010909016846FD
:108170004172407AF02188436946487200BF6846E0
:10818000807A06218843811C68468172807A0821A2
:108190008843014668468172807A102188430146EF
:1081A00068468172807A4108490068468172A968F0
:1081B00001F048FA0746142104A804F0BEFE03A803
:1081C000049002A805906846078300214183018B33
:1081D00081830890E08822460E3204A9A3DF064678
:1081E000002E03D03046ACE70020E0810020A8E755
:1081F000F8B504460D46286820600020C043608220
:1082000028792075FF20207400BF01216846817005
:108210002749018000BF221D69460120A0DF0646D4
:10822000002E01D03046F8BD29462046FFF700FF5A
:10823000F9E733B585B004460025207C6946097E00
:1082400088422FD0012104916846007E2074E08886
:1082500006AB04AA0021A4DF0546002D02D0284663
:1082600007B030BD608A1349884219D0207D0028AC
:1082700016D00020009001900290039001210491FB
:10828000E18868460180012181700021818004A875
:10829000029006A80390608A6946A6DF054600E0C2
:1082A000082500BF2846DBE7192A0000082900003E
:1082B0000F180000FFFF00008A88C2877047002265
:1082C000D243C287704770B504460E46B51D288854
:1082D000E18B884204D129462046FFF7B4FA10E02A
:1082E0002888E188884204D129462046FFF75BFAB6
:1082F00007E02888E18D884203D129462046FFF710
:10830000DCFA70BD70B505460C462088102804D0F4
:1083100011280AD0502818D10FE021462846FFF72F
:10832000CBFFFEA002F084F810E021462846FFF7BC
:10833000C6FFFEA002F07CF808E021462846FFF7C1
:10834000C2FFFEA002F074F800E000BF00BF70BDE5
:1083500030B58FB004460D460020079000BF684638
:10836000007F01090901491C68460177007FF0215F
:10837000884310306946087700BF00BF6846407FD9
:1083800001090901491C68464177407FF021884373
:1083900010306946487700BF6846807F06218843D1
:1083A000811C684681771C2108A804F0C6FD08A836
:1083B000007810218843411808A801700078022134
:1083C0008843811C08A8017000780821884341185F
:1083D00008A801701021684601850C214185DAA0AA
:1083E000099000200B900C9007A80D9000200E9093
:1083F00000BF012168468171FE21C943818000BF11
:108400000020009000BF6846007801090901491C5E
:10841000684601700078F021884310306946087082
:1084200000BF00BF6846407801090901491C684641
:1084300041704078F021884310306946487000BF91
:108440006846807806218843011D684681708078DF
:10845000082188430146684681708078102188434E
:10846000014668468170807841084900491C684689
:108470008170142102A804F060FD01A802906846F2
:108480000390012101820021418201218182B148B2
:108490000690A088A31D02AA08A9A2DF0FB030BDD4
:1084A00030B58FB004460D460020079000BF6846E7
:1084B000007F01090901491C68460177007FF0210E
:1084C000884310306946087700BF00BF6846407F88
:1084D00001090901491C68464177407FF021884322
:1084E00010306946487700BF6846807F0621884380
:1084F000811C684681771C2108A804F01EFD08A88D
:10850000007810218843411808A8017000780221E2
:108510008843811C08A801701421684601850F2139
:1085200041858DA0099000200B900C9007A80D901C
:1085300000200E9000BF012168468171FD21C943D2
:10854000818000BF0020009000BF684600780109CC
:108550000901491C684601700078F02188431030F9
:108560006946087000BF6846807806218843011D6F
:10857000684681708078082188430146684681708A
:1085800080781021884301466846817080784108D0
:108590004900491C68468170142102A804F0CDFCF2
:1085A00001A80290684603900121018200214182C6
:1085B000012181826C480690A08823460E3302AACE
:1085C00008A9A2DF0FB030BD30B58FB004460D460C
:1085D0001C2108A804F0B1FC08A8007810218843E9
:1085E000411808A80170007802218843811C08A85E
:1085F000017014216846018541855CA00990002026
:108600000B900C900D900E9000BF01216846817177
:10861000FC21C943818000BF0020079000BF68464D
:10862000007F01090901491C68460177007FF0219C
:10863000884310306946087700BF00BF6846407F16
:1086400001090901491C68464177407FF0218843B0
:1086500010306946487700BF887F06218843801C18
:10866000694688770020009000BF684600780109BD
:108670000901491C684601700078F02188431030D8
:108680006946087000BF6846807806218843011D4E
:108690006846817080780821884301466846817069
:1086A00080781021884301466846817080784108AF
:1086B0004900491C68468170142102A804F03DFC61
:1086C00001A80290684603900121018200214182A5
:1086D000012181822A480690A0882346163302AAE7
:1086E00008A9A2DF0FB030BD30B58FB004460D46EB
:1086F0001C2108A804F021FC08A800781021884358
:10870000411808A80170007802218843811C08A83C
:108710000170007808218843411833E00D0A636F27
:108720006E6E656374656421000000000D0A646963
:1087300073636F6E6E656374656421000D0A7772F2
:10874000697465642100000075765F6C616D705F0F
:10875000636D64008A20002075765F6C616D705FC8
:1087600073746174757300008D20002075765F6CE2
:10877000616D705F646F6F725F73746174757300A5
:108780008E20002008A80170142168460185102160
:108790004185FEA0099000200B900C900D900E904A
:1087A00000BF012168468171FB21C943818000BF60
:1087B0000020079000BF6846007F01090901491C9D
:1087C00068460177007FF0218843103069460877BA
:1087D00000BF00BF6846407F01090901491C684687
:1087E0004177407FF021884310306946487700BFC9
:1087F000887F06218843801C694688770020009086
:1088000000BF6846007801090901491C68460170EB
:108810000078F021884310306946087000BF00BF1F
:108820006846407801090901491C68464170407852
:10883000F021884310306946487000BF6846807850
:1088400006218843011D684681708078082188438D
:108850000146684681708078102188430146684649
:108860008170807841084900491C68468170142154
:1088700002A804F062FB01A802906846039001215F
:1088800001820021418201218182C4480690A08892
:1088900023461E3302AA08A9A2DF0FB030BD30B5AF
:1088A0008FB004460D461C2108A804F046FB08A81A
:1088B000007810218843411808A80170007802212F
:1088C0008843811C08A80170142168460185132182
:1088D0004185B3A0099000200B900C900D900E9054
:1088E00000BF012168468171FA21C943818000BF20
:1088F0000020079000BF6846007F01090901491C5C
:1089000068460177007FF021884310306946087778
:1089100000BF00BF6846407F01090901491C684645
:108920004177407FF021884310306946487700BF87
:10893000887F06218843801C694688770020009044
:1089400000BF6846007801090901491C68460170AA
:108950000078F021884310306946087000BF6846EF
:10896000807806218843011D68468170807808213F
:10897000884301466846817080781021884301460B
:1089800068468170807841084900491C68468170BA
:10899000142102A804F0D1FA01A8029068460390BD
:1089A00001210182002141820121818281480690BA
:1089B000A0882346263302AA08A9A2DF0FB030BD43
:1089C00030B58FB004460D461C2108A804F0B5FA56
:1089D00008A8007810218843411808A80170007881
:1089E00002218843811C08A801700078082188436F
:1089F000411808A801701421684601850E2141859F
:108A00006DA0099000200B900C900D900E9000BF6F
:108A1000012168468171F921C943818000BF00208E
:108A2000079000BF6846007F01090901491C68469C
:108A30000177007FF021884310306946087700BF36
:108A400000BF6846407F01090901491C684641771B
:108A5000407FF021884310306946487700BF887F07
:108A600006218843801C694688770020009000BF5B
:108A70006846007801090901491C684601700078C0
:108A8000F021884310306946087000BF00BF684677
:108A9000407801090901491C684641704078F0217D
:108AA000884310306946487000BF684680780621C8
:108AB0008843011D684681708078082188430146FB
:108AC000684681708078102188430146684681702D
:108AD000807841084900491C68468170142102A829
:108AE00004F02BFA01A8029068460390012101824C
:108AF000002141820121818233480690A0882346CB
:108B00002E3302AA08A9A2DF0FB030BD30B58FB056
:108B100004460D461C2108A804F00FFA08A80078A6
:108B200010218843411808A8017000780221884369
:108B3000811C08A801701421684601851121418516
:108B400022A0099000200B900C900D900E9000BF79
:108B5000012168468171F821C943818000BF00204E
:108B6000079000BF6846007F01090901491C68465B
:108B70000177007FF021884310306946087700BFF5
:108B800000BF6846407F0109090129E066616E5F08
:108B90006E67745F696F6E5F636D64008B20002089
:108BA00066616E5F6E67745F696F6E5F7374617428
:108BB000757300008F200020656C65635F6C6F63C8
:108BC0006B5F636D640000008C200020656C656342
:108BD0005F6C6F636B5F737461747573000000008A
:108BE000491C68464177407FF02188431030694630
:108BF000487700BF887F06218843801C69468877B4
:108C00000020009000BF6846007801090901491C56
:108C1000684601700078F02188431030694608707A
:108C200000BF6846807806218843011D6846817030
:108C30008078082188430146684681708078102139
:108C40008843014668468170807841084900491C84
:108C500068468170142102A804F06FF901A80290FF
:108C60006846039001210182002141820121818215
:108C700031480690A0882346363302AA08A9A2DF0D
:108C80000FB030BDF8B505460E46306828600020AC
:108C9000C043E88700BF0121684681701121C943A4
:108CA000018000BF2A1D69460120A0DF0446002C78
:108CB00001D02046F8BD31462846FFF749FB04465F
:108CC000002C01D02046F5E731462846FFF7E8FBA7
:108CD0000446002C01D02046ECE731462846FFF739
:108CE00073FC0446002C01D02046E3E731462846B9
:108CF000FFF7FAFC0446002C01D02046DAE73146A3
:108D00002846FFF7CCFD0446002C01D02046D1E7D1
:108D100031462846FFF754FE0446002C01D0204679
:108D2000C8E731462846FFF7F1FE0446002C01D083
:108D30002046BFE70020BDE790200020014648887C
:108D4000B74A1288904206DB4888B54A528890425A
:108D500001DC012070470020FCE738B50546B1482A
:108D60000088B14988423BD0B0480078401CAF49E8
:108D70000870AF48007B097888420FDBA849A948F2
:108D8000008875DF0446002C07D0A94880690028B8
:108D900003D0A74881692046884721E00020A349E5
:108DA0000870A348007C00280FD03B219D48008814
:108DB00076DF0446002C07D09D488069002803D048
:108DC0009B4881692046884700BF99484069002830
:108DD00006D000200090964841696846884700BF49
:108DE00038BD70B505461C2229469148FDF7CCF9DF
:108DF000002090490870286800280BD00822884875
:108E0000296804F03BF886487ADF0446002C08D035
:108E1000204670BD82487BDF0446002C01D02046EE
:108E2000F7E70020C0437F49088000207F49087091
:108E3000814A0021814801F0C6F8EAE710B57F4871
:108E4000006801F038F910BD38B57D48FFF776FFAE
:108E5000002829D17748007800280AD07448406952
:108E6000002820D00020009071484169684688475A
:108E700019E06E480078002802D16D48456801E08D
:108E80006B488568002229466C48006801F0E2F8CA
:108E90000446002C07D066488069002803D0644847
:108EA0008169204688470AE061484069002806D069
:108EB000012000905E4841696846884700BF002055
:108EC0005C49087038BD10B50446A0885549088033
:108ED000082221460E315A4803F0D0FF00205349A2
:108EE00008705348C089002801D1FFF7ADFF10BDBD
:108EF00070B505460020C0434A49088000204B4910
:108F000008704E48006801F0D6F80446002C07D0DF
:108F100047488069002803D0454881692046884732
:108F200070BD70B50546AC1D20884149C98988428D
:108F300020D1208B02281DD100BF00BFA17EE27E80
:108F4000120211430846C107C90F002902D0FFF7DA
:108F50007BFF0FE03948006801F0ADF80646002EAF
:108F600007D033488069002803D0314881693046F2
:108F7000884700BF70BD10B504460822A11D3048C7
:108F800003F07CFFFFF760FF10BD10B5044620889A
:108F9000102806D0112808D012280ED0502810D141
:108FA00007E02046FFF78FFF0CE02046FFF7A0FF09
:108FB00008E02046FFF7B5FF04E02046FFF7DBFF9F
:108FC00000E000BF00BF10BD38B5044608222146AE
:108FD000134803F053FF12487ADF0546002D1CD1D9
:108FE0001748FFF7ABFE00280BD10120114908708C
:108FF0000B490C48008875DF054601200B490870B5
:109000000BE00B484069002806D00120009008487A
:1090100041696846884700BF0025284638BD0000E2
:10902000942000209E200020FFFF00009C200020B4
:109030005C250020AC2000205B8D0100A8200020D2
:10904000A0200020F7B584B004460F4606980678A5
:10905000B01C1F2803DC6078801C1F2802DD0C2058
:1090600007B0F0BD1F20801B801E85B20295B11C89
:10907000781802A97DDF03900398002801D0039897
:10908000EEE72078022808D168460089A84204DC6F
:1090900009200190684605890BE00820019060785E
:1090A000002804D06078A84201DC657801E06846B9
:1090B0000589681CC2B23046711CCEB23A543046A3
:1090C000721CD6B20199395406980178A81C081868
:1090D000C1B2069801700020C2E7F8B505460C46FB
:1090E0002078001D1F2801DD0C20F8BD684679DFBF
:1090F0000646002E01D03046F7E703212278501CA7
:109100002070A95419212278501C2070A95420786D
:1091100041196846008800F08AFA217840182070CA
:109120000020E2E7F8B505460F4616461C4668687B
:10913000002801D10720F8BD2078801C298840181C
:109140001F2801DD0C20F6E72878401CC1B22278E8
:10915000501C2070B1542178481C207077542A8804
:1091600023789819696803F089FE207829784018D7
:1091700020700020DFE730B503461078C01C1F28A0
:1091800001DD0C2030BD02241578681C10704C5590
:109190000A241578681C10704C551578681C1070DE
:1091A0004B550020EEE7FFB587B006461D46109CE4
:1091B0000020069020780590002747E0B9007068ED
:1091C00041180A886846028149884181002203A922
:1091D00002A865DF04900498002802D004980BB020
:1091E000F0BD6846017B099881422ED1069800287F
:1091F00001D0002000E00220019020786946097B20
:109200004118019808181F2801DD0C20E7E706988F
:10921000002809D12078401C20702278511C089821
:109220002170A854012006902078421903A902A8B1
:1092300065DF04900498002801D00498CFE72078D7
:109240006946097B4018207000BF7F1C3088B842F7
:10925000B4DC0698002806D021780598401C081A2E
:10926000C1B2059829540020B9E7FFB581B007467F
:1092700015460A9E009602223846049B0299FFF783
:1092800092FF0446002C02D0204605B0F0BD0096A7
:10929000102229463846049BFFF785FF0446002C20
:1092A00001D02046F1E70020EFE7014608880628B4
:1092B00008DB08881922D201904205DD0888E04ABF
:1092C000904201D0072070474888062808DB48886C
:1092D0001922D201904205DD4888D94A904201D036
:1092E0000720F0E70888D64A904208D04888904284
:1092F00005D008884A88904201DD0720E3E7002076
:10930000E1E7F8B506460D4614462078801D1F2873
:1093100001D90C20F8BD3046FFF7C7FF0746002FE4
:1093200001D03846F6E705212278501C2070A95458
:1093300012212278501C2070A954227851193088AB
:1093400000F075F921784018207022785119708842
:1093500000F06DF92178401820700020DAE7F8B5A8
:1093600005460E4614462879801CC7B22078801C1A
:10937000C0191F2801DD0C20F8BD781CC1B222786D
:10938000501C2070B154FF212278501C2070B15421
:1093900022789119288800F04AF921784018207025
:1093A000A88800280EDDA868002801D10720E3E77F
:1093B000AA8823789819A96803F060FD2078297994
:1093C000401820700020D7E7FEB507460E46144629
:1093D000386B002801D10720FEBD0020019032E04B
:1093E000396B0C22019850430D182879801CC0B2AB
:1093F00000900098401CC1B22278501C2070B154DB
:1094000016212278501C2070B15422789119288896
:1094100000F00DF9217840182070A88800280EDD92
:10942000A868002801D10720D6E7AA8823789819D0
:10943000A96803F023FD207829794018207001984D
:10944000401CC0B201903420C15D01988142C7DC4C
:109450000020C1E7F8B504460F4616460025002057
:1094600030702078002809D0324639462046FFF770
:10947000E9FD0546002D01D02846F8BDA07800285A
:1094800008D031463846FFF728FE0546002D01D0AA
:109490002846F2E7A08800280ADD33463A46012133
:1094A000201DFFF73FFE0546002D01D02846E4E7CA
:1094B000E06800280BD00020E168085632463946A3
:1094C000FFF759FE0546002D01D02846D5E7208A32
:1094D00000280CDD3B460622022120461030009673
:1094E000FFF7C3FE0546002D01D02846C5E7208BB7
:1094F00000280CDD3B460722032120461830009649
:10950000FFF7B3FE0546002D01D02846B5E7208CB5
:1095100000280CDD3B461522142120462030009601
:10952000FFF7A3FE0546002D01D02846A5E7A06A57
:10953000002809D032463946A06AFFF7E2FE054608
:10954000002D01D0284698E7E06A002809D032466D
:109550003946E06AFFF703FF0546002D01D0284693
:109560008BE73420005D002809DD3246394620466D
:10957000FFF72AFF0546002D01D028467DE7284643
:109580007BE701468888002808D08868002805D035
:109590008868007804221040002801D10720704715
:1095A0000020FCE701468888002801DD072070477D
:1095B0000020FCE7F3B593B00D4600211291119104
:1095C0001398002814D01398FFF7DBFF0446002CF3
:1095D00002D0204615B0F0BD12AA09A91398FFF7D2
:1095E00039FF0446002C01D02046F3E709AE00E025
:1095F0000026002D13D02846FFF7D4FF0446002C88
:1096000001D02046E6E711AA01A92846FFF722FF6C
:109610000446002C01D02046DCE701AF00E0002723
:1096200010A803793A46017A304672DFD2E7024643
:109630000A70FF200002104000124870022070479C
:10964000FFFF0000F8B505460E460024327821469B
:10965000641C6A5472782146641C6A5400BF022C50
:1096600001D1012000E000200746002F05D100BFF6
:1096700008A22021FCF780FE00BF00BF2046F8BDF5
:1096800070B504460D46284603F0D6FB2080656081
:1096900070BD00002E2E5C2E2E5C2E2E5C2E2E5CBD
:1096A0002E2E5C536F757263655C626C655C626CD8
:1096B000655F73657276696365735C626C655F7321
:1096C00072765F636F6D6D6F6E2E630010B500284C
:1096D00019DAFB4A03071B0F083B9B089B00D25873
:1096E0008307DC0EFF23A3409A438B071B0E8407DE
:1096F000E40EA3401A43F24B0407240F083CA408CD
:10970000A4001A5118E0EF4A03231B02D218830861
:109710009B00D2588307DC0EFF23A3409A438B079C
:109720001B0E8407E40EA3401A43E64B03242402D5
:109730001B198408A4001A5110BD10B50446E24854
:10974000846003211120FFF7C1FF10BD10B5012077
:109750000004DE494860DD4940394860112000F0CE
:10976000F5FC112000F0E4FC0120D94908602F200D
:10977000FCF7EAFC0120D749087010BD10B5112094
:1097800001218140CF4A8032116000BF01200004D6
:10979000CE498860CD49403988600120CC49486075
:1097A0002F20FCF7D1FC0120C94988600020CA495C
:1097B00008602F20FCF7C8FC0020C649087010BDC7
:1097C000F0B5024624205043C44B1B68C118C4485E
:1097D0000068401C002802D1C148026059E0C0481E
:1097E0004B68006824246043BC4C2468001940681E
:1097F000834217D8BA48006824235843B74B1B68E4
:10980000C01840684B68C31AB548006824246043F8
:10981000B24C246800194360B14800680862B0483F
:10982000026036E04B68AE4D2C6828680DE02425B8
:109830004543AA4E3668AD196D685B1B0446242566
:109840004543A64E3668AD19286A451C002D07D041
:1098500024254543A14E3668AD196D689D42E6D377
:10986000451C002D0CD0242545439C4E3668AD196F
:109870006D68EE1A24254543984F3F68ED196E60D8
:109880004B60086224256543944E3668AD192A6200
:1098900000BFF0BDF8B50646914805682C4609E0C2
:1098A000B44200D109E02546242060438B49096871
:1098B0004018046A601C0028F2D100BF601C002818
:1098C00000D1F8BDA54210D1854800682421484345
:1098D000824909684018006A8149086008460068A2
:1098E000401C002801D1FFF749FF242060437B4939
:1098F000096840184768242060437849096840187F
:10990000016A24206843754A126880180162242085
:109910006843724909684018046A601C00280CD02A
:10992000242060436D49096840184068C11924200B
:1099300060436A4A12688018416000BFC1E710B5F1
:10994000112000F0FCFB10BD10B5142000F0F7FB57
:1099500010BD70B5044663480068002813D0614A02
:10996000E169A06912689047054600BF2E46002EA7
:1099700007D000BF5CA2FF2164313046FCF7FCFC3D
:1099800000BF00BF02E0A169E069884770BDF8B57B
:1099900053480068401C00283AD0002700F008FC1B
:1099A00004464D480168204600F005FC06464C4838
:1099B000056811E024206843484909684418606834
:1099C000B04200D90BE06068361A6068C719256A92
:1099D0002046FFF7BEFF00BF681C0028EAD100BF89
:1099E0004D4800784D490978884209D14B480078A4
:1099F000401CC0B249490870022801D100200870FB
:109A000046480078800046490F50FFF79DFF00BF91
:109A1000F8BD014640480078404A127890421DD077
:109A20003D480078401C3C4A1070104600780228DF
:109A300001D100201070384800788000384A105852
:109A40000860254A086812688018234A106010468A
:109A500000680002000A10600120704700200860C2
:109A600000BFFAE7FEB51E48006801902D48007857
:109A7000009076E00098C0002B49096844182578CA
:109A80006BE01820684361680F18681CC5B2A078A5
:109A9000A84200D100253878022802D0032859D1E5
:109AA00044E02421786848430C4909684618307D11
:109AB000002804D07868FFF7EDFE002030754AE0FA
:109AC0001CED00E000E100E0001501404013014002
:109AD00000100140D8200020C4200020B420002025
:109AE000C0200020D42000202E2E5C2E2E5C2E2E96
:109AF0005C2E2E5C2E2E5C536F757263655C6170FC
:109B0000705F636F6D6D6F6E5C6170705F74696DB7
:109B100065722E6300000000D0200020D1200020BC
:109B2000C8200020B8200020BC2000200CE0F8490C
:109B3000096824225143F74A1268881800210175E8
:109B4000F34A016A116000BFF1480068401C002818
:109B5000EDD100E000BF00BF00BF6078A84290D107
:109B600000BF0098411EC9B20091002882D1E84888
:109B700001680198814201D00120FEBD0020FCE770
:109B8000F0B50346002426E0E14E366824277E43E4
:109B9000E04F3F68F01946689E4203D94668F61ABE
:109BA00046601DE046689B1B4668341900264660E7
:109BB0000675D74E3568D64F066A3E600669002E98
:109BC00008D00E193602360A86600669C660166825
:109BD0000662156000BFCE480068401C0028D3D143
:109BE00000BFF0BDFEB50746C94800680290CA48EC
:109BF000007801906BE00198C000C84909684518D9
:109C00005DE0781C002807D03E4624207043C149FF
:109C100009684418276A23E02978182359436A6899
:109C200050182978491C29702978AA78914201D1C5
:109C300000212970466824217143B64A12688C18A5
:109C40000178012902D1217D002900D037E0816807
:109C5000A160C168E160016921614169E16100BF02
:109C6000AF49A0680968401A0002000AAD4988425D
:109C700008D2AB49A068096800F09DFAE168401875
:109C8000606011E0A648A168006800F094FA0090B6
:109C9000E1680098814204D9E1680098081A606080
:109CA00001E00020606000BF0020A060E0600120B3
:109CB0002075801E20623046FFF782FD00BF781CB1
:109CC00000289ED12878697888429AD100BF0198EF
:109CD000411EC9B2019100288DD18D4801680298BA
:109CE000814201D00120FEBD0020FCE7FEB588487E
:109CF0000068401C002834D085480068242148436F
:109D0000844909684018456800F052FA0190844877
:109D100004682146019800F04EFAC61C824800787B
:109D2000002801D1FFF712FDAE4201D2284600E023
:109D3000304604192402240A20467C49086000BFEA
:109D400000F036FA00900199009800F034FAC71C30
:109D50002046019900F02FFA874201D9FFF7EFFD65
:109D600001E0FFF70BFDFEBDFEB50020C0430190F2
:109D70006B480468664807686846FFF74AFE054670
:109D8000FFF770FE0646002D05D001AA2146009877
:109D9000FFF7F6FE01260198FFF724FF002800D008
:109DA0000126002E02D03846FFF7A0FFFEBD41700D
:109DB000704770B502460B465078411C9078884237
:109DC00000D100211078884201D1002070BD1960B7
:109DD00050781826704355682C182046F6E7FFB5D2
:109DE00081B005460E461746E9004C4A12688818AD
:109DF0006946FFF7DEFF0446002C02D1042005B0BF
:109E0000F0BD01202070666000F0D2F9A060E7602C
:109E1000049820610A986061E900404A1268881835
:109E20000099FFF7C4FFFFF78FFD0020E7E7F8B5C3
:109E300004460E46E100394A126888186946FFF761
:109E4000B8FF0546002D01D10420F8BD022028707E
:109E50006E60E100314A126888180099FFF7A7FF89
:109E6000FFF772FD0020F0E738B50446E1002B4A09
:109E7000126888186946FFF79CFF0546002D01D13E
:109E8000042038BD03202870001F6860E100234AC9
:109E9000126888180099FFF78AFFFFF755FD002028
:109EA000EFE710B5002022490860002120484160FA
:109EB0008160C16000201E49403908604860FFF79A
:109EC00066FD10BD10B5FFF74FFF10BDFFB581B0A7
:109ED0000E4617461C4620468107890F002901D1EE
:109EE000012100E00021002902D1072005B0F0BDCA
:109EF000002C01D10720F9E7FFF740FC0D490A9833
:109F000008600D48067003480460002523E0000047
:109F1000C0200020B4200020B8200020BC20002059
:109F2000C4200020FFFF7F00D82000204015014002
:109F300040110140D4200020B02000200021242026
:109F400068439F4A12681154242068439C4A12684F
:109F5000801801756D1CB542F0DB24207043041994
:109F600003209849087098480460183400250CE0D4
:109F7000E900954A126888180021017041708770C5
:109F80004460182179430C196D1C032DF0DB00206F
:109F9000C0438E49086000208D4908708D490870C3
:109FA000142000F0D3F803211420FFF78FFB1420B6
:109FB00000F0BEF80198FFF7C0FB00F0F9F8864901
:109FC0000860002092E770B503460C467C480068A4
:109FD000002801D1082070BD002A01D10720FAE72E
:109FE000002B01D10720F6E700211CE02420484384
:109FF000734D2D68285C002814D101252420484386
:10A000006F4E36683554242048436D4D2D684019F5
:10A010004470242048436A4D2D68401982611960BC
:10A020000020D8E7491C6D4800788142DEDB04201F
:10A03000D1E710B500F092F8012802D0032804D12E
:10A0400001E0002403E0012401E0022400BF00BF7E
:10A05000204610BDFEB504460D4616465848006819
:10A06000002801D10820FEBD5C480078844201D25E
:10A07000052D01D20720F6E72420604350490968E6
:10A08000085C012801D00820EDE7242060434C49FA
:10A09000096840184078012801D1284600E00020D6
:10A0A0000746FFF7C6FF3B462A4621460096019029
:10A0B000FFF795FED7E770B50446414800680028D1
:10A0C00001D1082070BD45480078844201D30720A3
:10A0D000F8E7242060433A490968085C012801D068
:10A0E0000820EFE7FFF7A5FF05462146FFF79FFE93
:10A0F000E8E710B532480068002801D1082010BDFB
:10A10000FFF797FF0446FFF7AFFEF8E710B50446E8
:10A1100000F04EF82060002010BD70B505460E46D8
:10A1200014463146284600F046F82060002070BDF5
:10A13000C206D20E01219140294A11607047C20621
:10A14000D20E01219140274A11607047C206D20EFB
:10A1500001219140234A80321160704710B5224896
:10A160004068C105C90D002920D00A46103A50B2F6
:10A1700000280DDA1C4B1C330407240F083CA408EC
:10A18000A4001B598407E40EE3401B069B0F0BE061
:10A19000134B032424021B198408A4001B598407B1
:10A1A000E40EE3401B069B0FD8B210BD0420FCE771
:10A1B0000E48406870470246501A0002000A704775
:10A1C000B4200020B8200020BC200020C0200020A7
:10A1D000D0200020D1200020C4200020B02000206A
:10A1E00000E100E000E200E000ED00E000150140C9
:10A1F00070B506460C46154629462046FCF7C7F8BA
:10A2000070BDF8B55A480078002800D1F8BD59480B
:10A210000068002801D1012000E0002005465648D2
:10A220000068002801D1012000E00020064600BFA0
:10A23000002D14D1684651DF0446052C01D10125BB
:10A240000CE0002C06D000BF4CA269212046FCF790
:10A2500093F803E0474900980968884700BF002E3B
:10A260001AD154480088009069465348006861DF5D
:10A270000446052C01D101260DE0002C06D000BFBC
:10A280003EA280212046FCF777F804E04A480068A7
:10A2900039490968884700BF002D02D0002E00D040
:10A2A00000E0C5E700BF00BFB0E7FFB581B00C46D6
:10A2B00016461F46002C02D1072005B0F0BD2046EF
:10A2C0008107890F002901D1012100E00021002927
:10A2D00001D10720F1E73848046036480680374846
:10A2E00007603749019810DF0546002D01D0284648
:10A2F000E3E701201E490870162026DFDDE710B5D0
:10A3000011DF0446002C01D0012000E00020184994
:10A310000870204610BD0146002901D10E2070476B
:10A32000154801600020FAE70146002901D10E20FE
:10A330007047104801600020FAE770B51F480068B8
:10A34000002811D01D4800688047044600BF2546FC
:10A35000002D07D000BF09A2FF2133312846FCF7AA
:10A360000BF800BF00BF01E0FFF74BFF70BD00001E
:10A37000E6200020EC200020E82000202E2E5C2E7D
:10A380002E5C2E2E5C2E2E5C2E2E5C536F7572630F
:10A39000655C73645F636F6D6D6F6E5C736F667425
:10A3A0006465766963655F68616E646C65722E636F
:10A3B00000000000E4200020E0200020DC2000203D
:10A3C000F1A1010000BF424880680128FBD10020B4
:10A3D0003F4988603F488069C0B2704770B5044605
:10A3E0000D4601260AE02046641E002804DB7D207D
:10A3F000C000FBF7B9FE01E0002603E034488068A6
:10A400000128F0D100BF002C05DB00203049886016
:10A41000304880692870304670BD2E49C86100BF41
:10A420002B49C9690129FBD10021294AD161704713
:10A4300030B50346002528466D1C1C5C05E020460F
:10A44000FFF7EBFF28466D1C1C5C002CF7D130BDDC
:10A45000F8B507460C4615461E46204600F025F87E
:10A460000021304600F02AF81A48C4604661069878
:10A4700000280DD0384600F018F80021284600F0DA
:10A480001DF8144805618760012012494031C862F7
:10A490001148104948620420086001200F49886073
:10A4A000086000200A498860F8BD032105221207D0
:10A4B00007231B02D2188300D150704710B58A00C1
:10A4C00005231B07072424021B1984001A5110BD01
:10A4D000002100400025004000E0D701002000409E
:10A4E00070B503460C460820002115E00C254D43AD
:10A4F000FE4EAD19AD7A2540002D0CD0FC4DAB427F
:10A5000005D00C254D43AD192D899D4202D1116016
:10A51000002003E00520491C0029E7D000BF70BDE2
:10A5200010B504461C216143F24A891808461130CF
:10A53000062102F000FD1C216143EE4A881810211B
:10A5400002F0F9FCFF211C206043EA4A80180174E4
:10A550001C206043801881760021C9431C20604381
:10A5600080180183204601F03CF910BD7CB50546FA
:10A57000A9B26A46E04801F029FE0446002C09D140
:10A580005021684601F0A1FF0446002C02D1284664
:10A59000FFF7C6FF20467CBDF8B505460E461746B8
:10A5A0000520009000241BE0002D06D11C206043F4
:10A5B000D0494018008BB8420DD0002D0FD01C217F
:10A5C0006143CC4A8918084610300722294602F018
:10A5D00006FC002803D134600020009002E0641CD7
:10A5E000072CE1D300BF0098F8BD10B50446012147
:10A5F0000C206043BD4A80188172891E0C20604384
:10A6000080180181FF210C2060438018C1720C2149
:10A6100061438818072102F08EFC10BD10B5044676
:10A62000002010BDF0B587B007460C4614200190FD
:10A6300061780C225143AD4A8918088901AA02A900
:10A64000AADF0646002E46D1617818225143AB4A54
:10A650008918081D69468A8802A902F0C0FB0028F3
:10A6600012D160780C214843A0494018807A022119
:10A67000084002282FD06178182251439F4A881839
:10A68000182102F05AFC26E06078182148439B49C3
:10A690000858002801D09A4D00E09A4D69468988F3
:10A6A000607818225043954A11506178182251431E
:10A6B000924A8918081D69468A8802A9FBF764FD39
:10A6C0006078182250438D4A811834231822384666
:10A6D000A847064600BF002007B0F0BD0246002094
:10A6E000704770B505460C46617818225143834A7D
:10A6F000881834231822294601F076FE0646002EDB
:10A700000DD16078182148437C490858401C002826
:10A7100005D10021607818225043784A1150304604
:10A7200070BD024600207047F8B504460026002799
:10A730006078182148437149085800281FD0607874
:10A740000C21484369494018807A4021084040283C
:10A7500015D160780C21484364494018807A202143
:10A76000084020280BD060781821484363494018DE
:10A77000061D6078182148436049085A87B26178FD
:10A780000C225143594A891808893A463146A9DFB3
:10A790000546002D00D05C4D2846F8BD014600203E
:10A7A00070470146002902D1574833387047FF20CF
:10A7B000087048708870C8700020F7E7FFB58BB04C
:10A7C0000F461D4600BF51480068002801D10FB058
:10A7D000F0BD00BF1498502800D9F8E7012002907E
:10A7E00007A8FFF7DEFF064600BF0196019E002E78
:10A7F00006D000BF464A47490198FBF7BDFD00BFA0
:10A8000000BF00216846017708A8017006951498DA
:10A8100005900020019017E0019881B203AA364804
:10A8200001F0D4FC0646002E0BD1082203A90B9898
:10A8300002F0D5FA002804D10198C1B268468177A8
:10A8400005E00198401C019001980728E4D300BF5F
:10A850006846807FFF2848D0042F0AD114985028DA
:10A8600003D1202008A9087081E0402008A90870C1
:10A870007DE02049681A1C2102F061FB0446072C88
:10A880001DD205A809900D98002810D16946887F2F
:10A8900001218140204A12681140002901D0012184
:10A8A00000E00021002902D1002002905FE069460B
:10A8B000887F00F096FF202008A9087057E017490C
:10A8C000681A182102F03BFB0446002C28D105A889
:10A8D0000990202108A8017068464477807F1C21D8
:10A8E000484304494018069041E062E06C2600208D
:10A8F000FFFF000078250020F020002054260020D3
:10A900001FC3010055C201004180000078260020CD
:10A91000B0D10100C3040000F82000203C26002034
:10A92000F749681A182102F00AFB0446002C19D1D5
:10A93000302108A80170684644770121C1770C20B6
:10A940006043F0494018807A0221084002280ED066
:10A950006946497F18225143E94A8818182102F0B4
:10A96000ECFA04E000200290402008A90870029848
:10A9700001281ED1042F06D108A908780321084315
:10A9800008A908700EE0032F06D108A90878012154
:10A99000084308A9087005E008A9087802210843BF
:10A9A00008A9087005A8099008A907A80D9A00F041
:10A9B0005BFF00BF0BE77FB50646002E02D1D248F1
:10A9C00004B070BD00240BE000BF00210C206043E8
:10A9D000CE4A11500C2060438018817200BF641C65
:10A9E000002CF1D0002403E02046FFF7FEFD641C9C
:10A9F000002CF9D01821C24802F09FFA002406E08A
:10AA00002046FFF78DFDFF20C1490855641C072C27
:10AA1000F6D35021684681810721C181BD4802904B
:10AA2000BD4902A801F00CFB0546002D30D10120E4
:10AA3000BA4908703078002821D100241CE0A1B266
:10AA40006A46B54801F0C2FB0546002D0FD11C2116
:10AA50006143B34A881800231C22694601F0C4FCF4
:10AA60000546002D07D00020AC49087006E0002004
:10AA7000AA49087002E0641C072CE0D308E06A468B
:10AA80009089D289504381B2A34801F01EFD05464A
:10AA9000284695E770B505460C4600BF9F480078EC
:10AAA000002802D19848801F70BD00BF002D01D141
:10AAB0009548F9E7002C01D19348F5E72068002874
:10AAC00001D19148F0E79148006800280FD18F49E3
:10AAD000206808600622A11D8C48001D02F0CEF9F6
:10AAE00020798A49887200202870002601E0864E6D
:10AAF0000A3E3046D8E770B5044600BF8748007864
:10AB0000002802D18048801F70BD00BF002C01D1F9
:10AB10007D48F9E700BF2078012806DA20780C216B
:10AB200048437A490858002802D17748801FEBE74C
:10AB300000BF00BF6078012807DA60780C21484325
:10AB400070494018807A012802D16F48801CDBE7E9
:10AB500000BF6D4DAD1F60780C2148436949401816
:10AB6000807A02210840022809D161780C225143E1
:10AB7000644A891808896549091D7EDF054628460B
:10AB8000C2E7024600BF65480078002802D15E484F
:10AB9000801F704700BF002A01D15B48F9E70029F8
:10ABA00001D15948F5E700BF1078012806DA10787E
:10ABB0000C235843554B1858002802D15248801F87
:10ABC000E7E700BF00BF5078012807DA50780C2370
:10ABD00058434C4BC018807A012802D14A48801C47
:10ABE000D7E700BF50780C235843464BC018807AF3
:10ABF00004231840002802D0012008700EE050788D
:10AC00000C2358433F4BC018807A4023184000283B
:10AC100002D00220087001E0002008700020B8E790
:10AC2000F0B5044600BF3D480078002802D1364800
:10AC3000801FF0BD00BF002C01D13348F9E7002987
:10AC400001D13148F5E70868002801D12E48F0E726
:10AC50008868002801D12C48EBE700BF2078012844
:10AC600006DA20780C256843284D2858002802D1A0
:10AC70002548801FDDE700BF00230022002024E0DC
:10AC80001C254543264EAD19AD7EED07ED0F002D79
:10AC900008D11C254543AD1997008E68F5511C4E0F
:10ACA000B054521C1C2545431D4EAD19AD7E0226E5
:10ACB0003540002D08D11C254543194EAD191035DE
:10ACC0009F000E68F5515B1C401C072805D20D79CA
:10ACD0009D4202D90D7B9542D2D80B710A73002098
:10ACE000A7E7024608488230704770B5044600BFA7
:10ACF0000A480078002815D10348801F70BD000065
:10AD0000542600206C2600200E80000078260020AB
:10AD1000FD200020BDA70100F0200020FC20002025
:10AD20007825002000BF002C01D1F748E6E700BFDE
:10AD30002078012806DA20780C214843F349085886
:10AD4000002802D1F048801FD8E700BF00BFA078DC
:10AD5000072807DAA0781C214843ED494018807E77
:10AD6000FF2802D1E848801CC8E700BFA078FFF7A1
:10AD7000FDFB05462846C1E770B5044600BFE5481F
:10AD80000078002802D1E048801F70BD00BF002C71
:10AD900001D1DD48F9E700BF2078012806DA2078E4
:10ADA0000C214843D9490858002802D1D648801FB1
:10ADB000EBE700BF002600250BE01C206843D449C8
:10ADC0004018807EFF2803D02846FFF7CFFB0646B9
:10ADD0006D1C072DF1D33046D7E7FEB504460D466E
:10ADE00000BFCC480078002802D1C748801FFEBDB4
:10ADF00000BF002C01D1C448F9E7002D01D1C248A1
:10AE0000F5E700BF2078012806DA20780C214843B6
:10AE1000BE490858002802D1BB48801FE7E700BFA1
:10AE200000BF6078012807DA60780C214843BA49EE
:10AE30004018807A012802D1B348801CD7E700BFB0
:10AE400000BFA078072807DAA0781C214843B04942
:10AE50004018807EFF2802D1AB48801CC7E700BFA6
:10AE6000A868002812D0686800280FD068681428E5
:10AE70000CD22878012809D1637818277B43A74F83
:10AE8000DB19181D6A68A96801F0F8FFA1786A4605
:10AE9000A34801F09BF9064628788000A1490A588A
:10AEA00021466846904706463046A0E77CB50446F2
:10AEB0000D4600BF97480078002802D19248801FB5
:10AEC0007CBD00BF002C01D18F48F9E7002D01D1D6
:10AED0008D48F5E700BF2078012806DA20780C219C
:10AEE00048438A490858002802D18748801FE7E76D
:10AEF00000BF00BFA078072807DAA0781C214843CC
:10AF000083494018807EFF2802D17F48801CD7E704
:10AF100000BF60780C2148437F494018807A0221A5
:10AF20000840022802D078488330C9E7A868002882
:10AF300012D1686814280FD2287801280CD16078C3
:10AF40001821484375494018001DA86060781821F1
:10AF50004843724908586860A1786A46704801F011
:10AF600035F90646287880006F490A582146684618
:10AF7000904706463046A3E7014600BF6548007883
:10AF8000002802D16048801F704700BF002901D10E
:10AF90005D48F9E700BF0878012806DA08780C2236
:10AFA00050435A4A1058002802D15748801FEBE7F7
:10AFB00000BF00BF8878072807DA88781C22504332
:10AFC000534A8018807EFF2802D14F48801CDBE75F
:10AFD00000BF4D488230D7E702464B488330704768
:10AFE00002464948833070470146474883307047DE
:10AFF000024600BF47480078002802D14248801F1F
:10B00000704700BF002901D13F48F9E7002A01D16C
:10B010003D48F5E700BF1078012806DA10780C23C8
:10B0200058433A4B1858002802D13748801FE7E7A9
:10B0300000BF107808700020E2E7FEB504460E4617
:10B04000A1786A46364801F0C1F80546002D49D17D
:10B0500060780C21484330494018807A202108400C
:10B06000202801D0022E01D1304F04E0012E01D161
:10B070002F4F00E02F4FA0781C225043244A811804
:10B0800000231C226846B8470546002D1AD1022E1F
:10B0900018D060780C2148431F494018807A20213D
:10B0A000884361780C2251431B4A89188872607862
:10B0B00018225043204A81181C2318226846B8479A
:10B0C000054600BF022E0DD020780C2148430F49C1
:10B0D0004018807A800013490A58214668469047F4
:10B0E000054600BFFEBD70B504460D4600BF0948C9
:10B0F0000078002802D10448801F70BD00BF002CDA
:10B100001CD10148F9E700000E80000078260020DD
:10B1100078250020FC2000206C26002054260020EA
:10B12000F02000207CD101008CD101001FC3010060
:10B1300055C201001DA601003C260020002D01D1B2
:10B14000FE48DAE700BF2078012806DA20780C21D3
:10B150004843FB490858002802D1F848801FCCE733
:10B1600000BF00BFA078072807DAA0781C21484359
:10B17000F4494018807EFF2802D1F048801CBCE7CB
:10B1800000BF6078FF281CD12878022819D0A17848
:10B190001C225143EB4A89180846103007222946E1
:10B1A00001F06CFEA07801218140E74A126811434A
:10B1B000E54A116000BF02212046FFF73EFF00264E
:10B1C00001E0DE4EF61F304697E770B504460E46A6
:10B1D00000BFDE480078002802D1D848801F70BD2B
:10B1E00000BF002C01D1D548F9E7002E01D1D3488A
:10B1F000F5E700BF2078012806DA20780C214843C3
:10B20000CF490858002802D1CC48801FE7E700BF8B
:10B21000CA4D093DA078FF2817D16078FF282AD0B1
:10B2200060780C214843CA494018807A02210840BE
:10B23000022820D160780C225043C54A8118072289
:10B24000304601F01BFE002515E0A0781C21484384
:10B25000BC494018807E0221084000280BD1A0780C
:10B260001C225043B74A801801461031072230464D
:10B2700001F004FE00252846B1E77CB50446A1781C
:10B280006A46B44800F0A2FF0546002D13D161784C
:10B2900018225143B04A88181C231822694601F02D
:10B2A000A3F8A748807A8000AC490A58214668462E
:10B2B0009047054600BF7CBDF0B589B00446002626
:10B2C000FF20029000BFA1480078002801D109B0FA
:10B2D000F0BD00BF00BF9A480068002800D1F6E723
:10B2E00000BF06A8FFF75DFA054600BF2F46002FF6
:10B2F00006D000BF9A4A9B493846FBF73DF800BF8D
:10B3000000BF0020019007900025201D04903421EB
:10B3100068468182FF218176002101760020089015
:10B320002088102813D0A08808AA0221FFF7D8F897
:10B330000546002D0BD10C2108984843844940183C
:10B34000C17A684681760898C1B2684641762088FD
:10B35000142879D006DC10280BD0112879D01328B6
:10B3600074D110E1172872D0182871D05228F7D163
:10B3700010E208AF3A4601217B48FFF7B1F8009090
:10B380000098002807D102210C2238685043704AE7
:10B390008018817201E00420009000980546002D7D
:10B3A00051D101261121684601730898C1B268463F
:10B3B0004176A1880C2208985043654A8018018183
:10B3C00002210C2208985043614A801881720C2295
:10B3D000089951435E4A88180722A11D01F04EFDCD
:10B3E000607B304000280AD0607B40085F49085CE1
:10B3F000FF280AD0607B4008085C029005E05A4AAA
:10B4000002A9A01DFFF7C8F80546002D1BD1029820
:10B41000C1B20C22089850434D4A8018C1720C21C9
:10B420000898484311464018807A082108430C22A6
:10B4300008995143464A8918887269460298887665
:10B4400006A8FFF71AFFB0E141E002E0ACE1DAE064
:10B450007EE10C21089848433D494018807A02213A
:10B4600088430C2208995143394A891888720C2163
:10B470000898484311464018807A08210840082857
:10B480000ED10C210898484311464018807A40217B
:10B49000084040280FD1002106A8FFF7CEFD0AE0A2
:10B4A0006846807EFF2806D06946887EFFF738F818
:10B4B000FF206946887610210C2208985043244AC0
:10B4C0008018817201261220694608736DE10C21F3
:10B4D000089848431E494018C07AFF2823D1E289C2
:10B4E00002A90020FFF758F80546002D1BD102984D
:10B4F000C1B20C2208985043154A8018C1720C2121
:10B500000898484311464018807A082108430C22C5
:10B51000089951430E4A89188872694602988876BC
:10B5200006A8FFF7AAFE0C210898484308494018CE
:10B53000C07AFF2821D01821089819E00E80000059
:10B540007826002078250020F8200020FC2000200C
:10B550006C260020F02000203C2600208CD1010029
:10B56000B0D1010037090000FFFF0000FD200020DE
:10B570004843DD494018001D0190A0880022019930
:10B5800081DF054611E1132069460873A088D74A78
:10B5900000217FDF0546002D02D00795002631E00F
:10B5A0000C2108984843D2494018807A0421084366
:10B5B0000C2208995143CE4A8918887201260C2121
:10B5C0000898484311464018C07AFF281AD000BF97
:10B5D000162069460873182208995143C54A8918EC
:10B5E000081D142101F0A9FC0C2108984843C0490A
:10B5F0004018807A202108430C2208995143BC4A04
:10B6000089188872D1E00C2108984843B84940183D
:10B61000807A042188430C2208995143B44A89183E
:10B6200088721420694608730126A079002802D088
:10B63000A07907908BE0182108984843AA4941183F
:10B64000E07A8870182108984843A7494118A07AE1
:10B650004870182208995143A34A8918081D1422DA
:10B6600021460C3101F00AFC0C2108984843A049FE
:10B670004018807A40210840402868D10C21089861
:10B6800048439B494018807A082108430C220899B6
:10B690005143974A891888720C21089848431146EB
:10B6A0004018C07AFF2840D10C22089850430A461F
:10B6B000811802A800F09DF80546002D33D1694697
:10B6C000029888760298C1B20C2208985043884AA2
:10B6D0008018C172A1891C2202985043864A8018A2
:10B6E0000183E07A4007C00F002817D01C22089978
:10B6F0005143814A881810222146203101F0BEFBB7
:10B700001C21089848437C494018807E4108490024
:10B710001C2208985043784A80188176012106A897
:10B72000FFF78BFC13E0079511E00C2108984843C4
:10B730006F494018807A202108430C220899514310
:10B740006B4A89188872002106A8FFF776FC2CE066
:10B750000C210898484366494018807A40210843E4
:10B760000C2208995143624A89188872152069464B
:10B7700008730020079001265C48001F807A800033
:10B780005E4A115806A888470546002D01D05C483E
:10B7900007900AE05548001F807A8000574A1158E8
:10B7A00006A88847079000E000BF00BF002E16D013
:10B7B00003A906A8079A00F057F86846007B1228EC
:10B7C0000DD100BF0C210898484349494018807AA0
:10B7D000012802D00898FEF708FF00BF00BF00BF95
:10B7E00075E501218140474A12688A4345490A604C
:10B7F0007047F8B505460E46414FBF1C00242EE0A9
:10B800001C2060433C494018807EFF2826D13078B8
:10B81000022814D01C2060434018807E02218843F7
:10B820001C216143344A891888761C216143891898
:10B83000084610300722314601F020FB0BE01C20A7
:10B8400060432D494018807E410849001C20604318
:10B85000294A801881762C70002702E0641C072C8E
:10B86000CED300BF3846F8BDF8B504460D4616469F
:10B870001E48001F0768324629462046B847F8BDD3
:10B8800002460020704770B505460E4631462846F0
:10B89000FEF7C8FE0446002C02D100BF00BF0446DC
:10B8A000204670BD02460020704770B505460E4622
:10B8B00031462846FEF715FF0446002C02D100BF92
:10B8C00000BF0446204670BD01460020704770B599
:10B8D00005462846FEF728FF0446002C02D100BF8B
:10B8E00000BF0446204670BD3C2600207C26002078
:10B8F0006C26002054260020782500209CD10100D1
:10B9000041800000F8200020002314214143FC4A1C
:10B9100053541421414389184B800123142141437E
:10B9200089188B600023142141438918CB601421AE
:10B93000414389180B611421414389188B8070475A
:10B9400010B50020EF490880EF490870EC49091F45
:10B95000087048708870002403E02046FFF7D4FF89
:10B96000641C0A2CF9D310BDFFB583B004460F4602
:10B9700015460326E448007800280BD1002D06D197
:10B980000698002803D10220DF49087002E0012058
:10B99000DD490870DC480078030001F0DBFB07FD9F
:10B9A00005314E84BAD7FD00D8484069401C0028B4
:10B9B00008D001221207126991B2D44A506901F0ED
:10B9C000BEFA02E0012000074069401E012109077C
:10B9D000096989B248430290012000070069000408
:10B9E000820C01200007006980B27843014602986A
:10B9F00021DF0646002E02D10220C3490870D0E0A4
:10BA0000384620DF0646002E16D1002D11D10698AB
:10BA100000280AD12078042803D10720BA490870E9
:10BA20000AE00520B849087006E00420B64908700D
:10BA300002E00320B4490870B3E0B4484069401CF8
:10BA4000002808D001221207126991B2AF4A50694A
:10BA500001F075FA02E0012000074069401E012153
:10BA60000907096989B24843012109070290096958
:10BA700089B2794308462A46029921DF0646002EFC
:10BA800010D1069800280AD12078042803D1062076
:10BA90009D49087006E005209B49087002E00420DB
:10BAA000994908707DE099484069401C002808D0F9
:10BAB00001221207126991B2944A506901F03FFACB
:10BAC00002E0012000074069401E012109070969C1
:10BAD00089B24843A900401861884018012109072C
